{
  "contractName": "TodoList",
  "abi": [
    {
      "inputs": [],
      "payable": false,
      "stateMutability": "nonpayable",
      "type": "constructor"
    },
    {
      "constant": true,
      "inputs": [],
      "name": "taskCount",
      "outputs": [
        {
          "internalType": "uint256",
          "name": "",
          "type": "uint256"
        }
      ],
      "payable": false,
      "stateMutability": "view",
      "type": "function"
    },
    {
      "constant": true,
      "inputs": [
        {
          "internalType": "uint256",
          "name": "",
          "type": "uint256"
        }
      ],
      "name": "tasks",
      "outputs": [
        {
          "internalType": "uint256",
          "name": "id",
          "type": "uint256"
        },
        {
          "internalType": "string",
          "name": "content",
          "type": "string"
        },
        {
          "internalType": "bool",
          "name": "completed",
          "type": "bool"
        }
      ],
      "payable": false,
      "stateMutability": "view",
      "type": "function"
    },
    {
      "constant": false,
      "inputs": [
        {
          "internalType": "string",
          "name": "_content",
          "type": "string"
        }
      ],
      "name": "createTask",
      "outputs": [],
      "payable": false,
      "stateMutability": "nonpayable",
      "type": "function"
    },
    {
      "constant": false,
      "inputs": [
        {
          "internalType": "uint256",
          "name": "index",
          "type": "uint256"
        }
      ],
      "name": "deleteTask",
      "outputs": [],
      "payable": false,
      "stateMutability": "nonpayable",
      "type": "function"
    }
  ],
  "bytecode": "0x60806040526000805534801561001457600080fd5b5060408051808201909152601081526f2632b0b93710213637b1b5b1b430b4b760811b602082015261004e906001600160e01b0361005316565b61015a565b60008054600190810180835560408051606081018252828152602080820187815282840187905293865284815291909420845181559151805192936100a0939085019291909101906100bf565b50604091909101516002909101805460ff191691151591909117905550565b828054600181600116156101000203166002900490600052602060002090601f016020900481019282601f1061010057805160ff191683800117855561012d565b8280016001018555821561012d579182015b8281111561012d578251825591602001919060010190610112565b5061013992915061013d565b5090565b61015791905b808211156101395760008155600101610143565b90565b61044b806101696000396000f3fe608060405234801561001057600080fd5b506004361061004c5760003560e01c8063111002aa14610051578063560f3192146100f95780638d97767214610116578063b6cb58a5146101bd575b600080fd5b6100f76004803603602081101561006757600080fd5b81019060208101813564010000000081111561008257600080fd5b82018360208201111561009457600080fd5b803590602001918460018302840111640100000000831117156100b657600080fd5b91908080601f0160208091040260200160405190810160405280939291908181526020018383808284376000920191909152509295506101d7945050505050565b005b6100f76004803603602081101561010f57600080fd5b5035610243565b6101336004803603602081101561012c57600080fd5b5035610286565b604051808481526020018060200183151515158152602001828103825284818151815260200191508051906020019080838360005b83811015610180578181015183820152602001610168565b50505050905090810190601f1680156101ad5780820380516001836020036101000a031916815260200191505b5094505050505060405180910390f35b6101c5610335565b60408051918252519081900360200190f35b60008054600190810180835560408051606081018252828152602080820187815282840187905293865284815291909420845181559151805192936102249390850192919091019061033b565b50604091909101516002909101805460ff191691151591909117905550565b600081815260016020819052604082208281559190610264908301826103b9565b50600201805460ff191690556000541561028357600080546000190190555b50565b600160208181526000928352604092839020805481840180548651600296821615610100026000190190911695909504601f810185900485028601850190965285855290949193929091908301828280156103225780601f106102f757610100808354040283529160200191610322565b820191906000526020600020905b81548152906001019060200180831161030557829003601f168201915b5050506002909301549192505060ff1683565b60005481565b828054600181600116156101000203166002900490600052602060002090601f016020900481019282601f1061037c57805160ff19168380011785556103a9565b828001600101855582156103a9579182015b828111156103a957825182559160200191906001019061038e565b506103b59291506103f9565b5090565b50805460018160011615610100020316600290046000825580601f106103df5750610283565b601f01602090049060005260206000209081019061028391905b61041391905b808211156103b557600081556001016103ff565b9056fea265627a7a72315820e68e11767cea369132234abaf964aae4ea7ce8c1236e03a8c99d3e6d7260729a64736f6c63430005100032",
  "source": "pragma solidity ^0.5.0;\n\ncontract TodoList{\n    uint public taskCount = 0;\n    \n    struct Task {\n        uint id ;\n        string content ;\n        bool completed ;\n    }\n\n   \n\n    mapping(uint => Task) public tasks;\n    \n    constructor()public{\n        createTask(\"Learn Blockchain\");\n    }\n\n    function createTask(string memory _content) public \n    {\n      taskCount ++;\n      tasks[taskCount]= Task(taskCount, _content ,false);\n   \n    } \n    function deleteTask(uint  index )public\n    {\n        delete tasks[index];\n        if(taskCount>0)\n        {\n            taskCount--;\n        }\n       \n    }\n} ",
  "sourcePath": "/home/rami/Desktop/Web3-React-TodoApp/contracts/TodoList.sol",
  "compiler": {
    "name": "solc",
    "version": "0.5.16+commit.9c3226ce.Emscripten.clang"
  },
  "schemaVersion": "3.4.16",
  "updatedAt": "2024-02-20T13:55:14.383Z",
  "devdoc": {
    "methods": {}
  },
  "userdoc": {
    "methods": {}
  }
}