{
  "contractName": "TodoList",
  "abi": [
    {
      "constant": true,
      "inputs": [],
      "name": "taskCount",
      "outputs": [
        {
          "name": "",
          "type": "uint256"
        }
      ],
      "payable": false,
      "stateMutability": "view",
      "type": "function",
      "signature": "0xb6cb58a5"
    }
  ],
  "bytecode": "0x608060405260008055348015601357600080fd5b506099806100226000396000f3fe608060405260043610603e5763ffffffff7c0100000000000000000000000000000000000000000000000000000000600035041663b6cb58a581146043575b600080fd5b348015604e57600080fd5b5060556067565b60408051918252519081900360200190f35b6000548156fea165627a7a7230582073a77f66348a720728d81b81831eddbbf3de38797247a8e83428eb8602ac4cae0029",
  "source": "pragma solidity ^0.5.0;\r\n\r\ncontract TodoList{\r\n    uint public taskCount = 0;\r\n    \r\n    struct Task {\r\n        uint id ;\r\n        string content ;\r\n        bool completed ;\r\n    }\r\n\r\n    /*mapping(uint => Task) public tasks;\r\n    \r\n    constructor()public{\r\n        createTask(\"Learn Blockchain\");\r\n    }\r\n\r\n    function createTask(string memory _content) public \r\n    {\r\n      taskCount ++;\r\n      tasks[taskCount]= Task(taskCount, _content ,false);\r\n    } */\r\n} ",
  "sourcePath": "C:/Users/rami/Desktop/Projects/Web3/contracts/TodoList.sol",
  "compiler": {
    "name": "solc",
    "version": "0.5.0+commit.1d4f565a.Emscripten.clang"
  },
  "schemaVersion": "3.0.1",
  "updatedAt": "2021-12-09T21:35:20.373Z",
  "devdoc": {
    "methods": {}
  },
  "userdoc": {
    "methods": {}
  }
}